:020000040800F2
:1000000060A80020690200082D040008C903000848
:100010002904000819030008EF0900080000000087
:10002000000000000000000000000000850700083C
:100030001D03000800000000610700089D0800087B
:10004000830200088302000883020008830200087C
:10005000830200088302000883020008830200086C
:10006000830200088302000883020008830200085C
:10007000830200088302000883020008830200084C
:10008000830200088302000883020008830200083C
:10009000830200088302000883020008830200082C
:1000A000830200088302000883020008830200081C
:1000B000830200088302000883020008830200080C
:1000C00083020008830200088302000883020008FC
:1000D000830200080909000883020008830200085F
:1000E00083020008830200088302000883020008DC
:1000F00083020008830200088302000883020008CC
:1001000083020008830200088302000883020008BB
:1001100083020008830200088302000883020008AB
:10012000830200088302000883020008830200089B
:10013000830200088302000883020008830200088B
:10014000830200088302000883020008830200087B
:10015000830200088302000883020008830200086B
:10016000830200088302000883020008830200085B
:10017000830200088302000883020008830200084B
:10018000830200088302000800F002F800F05CF827
:100190000AA090E8000C82448344AAF10107DA45E2
:1001A00001D100F051F8AFF2090EBAE80F0013F0D8
:1001B000010F18BFFB1A43F001031847FC0B0000A6
:1001C0001C0C00000A444FF0000C10F8013B13F027
:1001D000070408BF10F8014B1D1108BF10F8015BA0
:1001E000641E05D010F8016B641E01F8016BF9D193
:1001F00013F0080F1EBF10F8014BAD1C0C1B09D1EA
:100200006D1E58BF01F801CBFAD505E014F8016B5B
:1002100001F8016B6D1EF9D59142D6D370470000ED
:100220000023002400250026103A28BF78C1FBD8FF
:10023000520728BF30C148BF0B6070471FB500F0A0
:10024000B5FD1FBD10B510BD00F033F81146FFF726
:10025000F5FF00F0B3FC00F051F803B4FFF7F2FF34
:1002600003BC00F023FC0000094880470948004710
:10027000FEE7FEE7FEE7FEE7FEE7FEE7FEE7FEE756
:10028000FEE7FEE704480549054A064B70470000B3
:10029000A10800088901000860A2002060A80020D1
:1002A00060A4002060A4002070477047704770472A
:1002B0007047754600F02CF8AE4605006946534677
:1002C00020F00700854618B020B5FFF7DBFFBDE83A
:1002D00020404FF000064FF000074FF000084FF0AD
:1002E000000B21F00701AC46ACE8C009ACE8C0093E
:1002F000ACE8C009ACE8C0098D46704710B50446AB
:10030000AFF300802046BDE81040FFF7A6BF000015
:1003100000487047FCA1002000BFFEE77047F0B521
:100320000A4600210023002400BF3DE0012505FA14
:1003300001F3156805EA03049C4234D105684F00B7
:100340000326BE40B543056015794E00B5400668EA
:10035000354305601579012D02D01579022D16D18E
:1003600085684F000326BE40B543856055794E0031
:10037000B540866835438560456801268E40B543A3
:100380004560456896798E40B6B235434560C5688C
:100390004F000326BE40B543C560D5794E00B54039
:1003A000C6683543C560491C1029BFD3F0BD02465D
:1003B000002013690B400BB1012000E000207047C2
:1003C000418370470183704700BFFEE710B54FF4CB
:1003D00080711448FFF7F4FF012000F0A3FB4FF4F5
:1003E00000711048FFF7EEFF012000F09BFB4FF477
:1003F00080710C48FFF7E6FF012000F093FB4FF4FB
:1004000000710848FFF7D3FF08B1012400E0002481
:100410004FF480710348FFF7D3FF012000F082FB07
:10042000204610BD0004024000BFFEE7704770B5D3
:10043000002419E004F1B001C8B2002100F084F9F1
:100440000021084600F080F90021102000F07CF91E
:10045000002505E00121002000F076F9681CC5B2F6
:10046000802DF7DB601CC4B2082CE3DB70BD2DE9E6
:10047000FC5F0746884691461C46DDF830B00D9873
:10048000019000200090E11704EB5171C910A4EB1A
:10049000C10131B92046E11704EB5171C1F3C70521
:1004A00006E02046E11704EB5171C910491CCDB29A
:1004B000002620E000200090454618E029463846F6
:1004C00000F0F4F8BA460EE0019A0E9902FB06130A
:1004D00000994A1C0092585C012100F035F90AF19C
:1004E000010000F0FF0ACA45EEDB681CC5B2A54258
:1004F000E4DB701CC6B25E45DCDBBDE8FC9F00009F
:100500001CB50121022000F02DF94FF4407000903D
:1005100001208DF8040000208DF8060003208DF8DE
:10052000050001208DF8070069460748FFF7F7FE30
:100530004FF480710448FFF745FF4FF40071024803
:10054000FFF740FF1CBD00000004024010B54FF44F
:1005500080710E48FFF736FF4FF400710B48FFF72C
:1005600031FF012000F0DEFA4FF400710748FFF779
:1005700027FF012000F0D6FA4FF480710348FFF7FF
:100580001FFF012000F0CEFA10BD00000004024061
:1005900010B54FF400710B48FFF712FF012000F077
:1005A000C1FA4FF480710748FFF70CFF012000F0FB
:1005B000B9FA4FF400710348FFF704FF012000F07F
:1005C000B1FA10BD0004024010B5FFF799FF4FF4D7
:1005D000FA7000F08BFA0021AE2000F0B5F800218F
:1005E000084600F0B1F80021102000F0ADF800211D
:1005F000402000F0A9F80021B02000F0A5F800216B
:10060000812000F0A1F80021FF2000F09DF80021DA
:10061000A12000F099F80021A62000F095F8002113
:10062000A82000F091F800213F2000F08DF8002173
:10063000C82000F089F80021D32000F085F80021BF
:10064000084600F081F80021D52000F07DF8002157
:10065000802000F079F80021D92000F075F8002101
:10066000F12000F071F80021DA2000F06DF800218F
:10067000122000F069F80021DB2000F065F800216D
:10068000402000F061F800218D2000F05DF800218D
:10069000142000F059F80021AF2000F055F8FFF7C2
:1006A000C6FE0021084600F001F810BD70B50446F2
:1006B0000D4605F1B001C8B2002100F045F804F084
:1006C0000F00002100F040F8102141EA1410002131
:1006D00000F03AF870BD2DE9F05F83460E461546EE
:1006E0001F46DDF82880B9464FF0000A31465846CB
:1006F000FFF7DCFF00240CE0690009FB0181085DC5
:10070000012100F021F80AF1010000F0FF0A601C4D
:10071000C4B2102CF0DB701CC1B25846FFF7C6FF04
:1007200000240DE06900491C09FB0181085D0121DD
:1007300000F00AF80AF1010000F0FF0A601CC4B2E0
:10074000102CEFDBBDE8F09F70B505460C461CB1E0
:10075000284600F09BF902E0284600F087F970BDBA
:100760007047000029B1064A12680243044B1A6020
:1007700004E0034A12688243014B1A60704700008C
:1007800030380240704700000CB500200190009006
:100790003448006840F480303249086000BF314876
:1007A000006800F4003000900198401C019000980F
:1007B00018B90198B0F5A04FF1D12A48006800F4AB
:1007C000003010B10120009001E00020009000985E
:1007D000012846D123484030006840F0805021492C
:1007E000403108602048006840F440401E490860DD
:1007F0001C48083000681B4908310860084600683A
:1008000040F4004008600846006840F4A0500860CA
:100810001648091F0860081F006840F08070091F13
:10082000086000BF0F48006800F000700028F9D091
:1008300040F205700E4908600A480830006820F050
:1008400003000849083108600846006840F00200CB
:10085000086000BF03480830006800F00C0008285A
:10086000F8D10CBD00380240007000400854400729
:10087000003C0240042808D14FF0E021096941F012
:1008800004014FF0E022116107E04FF0E021096917
:1008900021F004014FF0E022116170477047000021
:1008A00010B51548006840F47000134908601348FB
:1008B000006840F001001149086000200F4908312C
:1008C00008600E4800680E4908400C4908600D4851
:1008D000091D0860081F006820F48020091F0860B7
:1008E000002006490C310860FFF74EFF4FF0006012
:1008F00001498039086010BD88ED00E000380240F1
:10090000FFFFF6FE1030002410B540F225511D48BF
:1009100000F03EF810B31B4800F064F8C4B21A4867
:10092000008800F40040C8B91748008800F48040EF
:1009300060B10A2C03D000201349088020E012483F
:10094000008840F400401049088019E00D2C06D1C1
:100950000D48008840F480400B49088010E00A48A8
:100960000088C0F30D0009490C5407480088401C5A
:100970000549088008460088C72801DD0020088056
:1009800010BD00000010014030A1002034A1002063
:1009900070B50246002400230025002040F66A16A8
:1009A000B14200D100BFC1F3421501F01F0301267F
:1009B00006FA03F3012D02D19689334006E0022D99
:1009C00002D1168A334001E0968A33400C12012688
:1009D00006FA04F41688344013B10CB1012000E08B
:1009E000002070BD01468888C0F30800704700BF32
:1009F000FEE7000070B50446002524E04FF4807146
:100A00001948FFF7DDFC012000F08CF804F08000AD
:100A100028B14FF400711448FFF7D4FC04E04FF400
:100A200000711148FFF7CCFC6006040E012000F0B5
:100A300079F84FF480710C48FFF7C4FC012000F0F6
:100A400071F8681CC5B2082DD8DB4FF480710648D8
:100A5000FFF7B6FC012000F065F800BFFFF7B6FC19
:100A60000028FBD170BD00000004024010B5044610
:100A7000FFF76CFD7820FFF7BDFF0020FFF7BAFFFE
:100A80002046FFF7B7FFFFF783FD10BD10B5044602
:100A9000FFF75CFD7820FFF7ADFF4020FFF7AAFFCE
:100AA0002046FFF7A7FFFFF773FD10BD00BF70479B
:100AB00010B504466FF00400FFF7DCFEE11704EB0D
:100AC0005171C1F3C701074A11701046007800EB5D
:100AD0004001C1EBC0104FF6FF7101EAC0000249AE
:100AE000088010BD26A1002028A1002070B5044672
:100AF0004FF4077094FBF0F0C6B24FF4077094FB0C
:100B0000F0F100FB114085B205E04FF4077000F0F2
:100B10002FF8701EC6B2002EF7D115B1284600F08E
:100B200027F870BD0146114A12784A434FF0E0237E
:100B30005A6100229A611A46126942F001021A6152
:100B400000BF4FF0E022106900F001021AB100F47A
:100B50008032002AF5D04FF0E022126922F0010223
:100B60004FF0E0231A6100229A61704726A100200D
:100B70000146114A12884A434FF0E0235A6100228D
:100B80009A611A46126942F001021A6100BF4FF0E1
:100B9000E022106900F001021AB100F48032002A4C
:100BA000F5D04FF0E022126922F001024FF0E0236D
:100BB0001A6100229A61704728A100200EB5A82072
:100BC000FFF776FFFFF700FDFFF731FC72482023A7
:100BD0000022012100901020FFF77DFD6E482023A8
:100BE0000122114600901846FFF775FD6A48202340
:100BF0000222012100903020FFF76DFD664820237E
:100C00000322012100904020FFF765FD6248202368
:100C10000422012100905020FFF75DFD5E48202353
:100C20000522012100906020FFF755FD4FF4FA7076
:100C3000FFF75CFFFFF7FBFB584820230022012150
:100C400000901020FFF747FD544820230122114651
:100C500000901846FFF73FFD504820230222012153
:100C600000903020FFF737FD4C482023032201215C
:100C700000904020FFF72FFD484820230422032145
:100C800000901020FFF727FD444820230522032170
:100C900000901846FFF71FFD40482023062203213D
:100CA00000903020FFF717FD3C4820230722032146
:100CB00000904020FFF70FFD384820230822032131
:100CC00000905020FFF707FD34482023092203211C
:100CD00000906020FFF7FFFC4FF47A70FFF706FFEB
:100CE000FFF7A5FB56E02E484FF400711F220823A2
:100CF000CDE900210290602200212020FFF7B7FB00
:100D000027484FF400711F220823CDE900210290EB
:100D1000602200212020FFF7AAFBC820FFF7E6FE93
:100D200020484FF4007112220823CDE900210290DF
:100D3000602200212020FFF79AFB1A484FF400712F
:100D400012220823CDE900210290602200212020F8
:100D5000FFF78DFBC820FFF7C9FE13484FF4007161
:100D60001C220823CDE900210290602200212020CE
:100D7000FFF77DFB0C484FF400711C220823CDE9DE
:100D800000210290602200212020FFF770FBC82084
:100D9000FFF7ACFEA7E70000269D0020A69E0020DE
:100DA0002603002026410020266500204FF04070D9
:100DB000E1EE100A70470000D80D00080000002086
:100DC00034A10000C40100087C2F000834A10020D9
:100DD0002C0700002002000801133D80C0E06001E4
:100DE0001AC0012A800101161928A82070381C0E8B
:100DF00007737958C8D8D8D89890B0B0303060E12F
:100E0000E1E10103030383C6E67E1C29D50C070339
:100E1000012A010119291AC11D60089EE77F0F03ED
:100E2000FFFF180AFEFF03F8F80C0C0C18011A302B
:100E300052698919461F1C8EC7E3713C051A7978DF
:100E40006A0349180C070E1C3B333666666CCCCC23
:100E50008739861934E80AE170389CCEE771381E6C
:100E600079E139851C030306010912291332011A9D
:100E70004002015F043840E0C0000E30C0F0F8E0EE
:100E8000C080FFFFFEFCF0C08000122CF0FCFFFFD2
:100E90001F0F1F3F3F3F1F0703FFFFFFFC180B8083
:100EA000C040878F9F387060E00208092970703C4D
:100EB0009F8F43C0408300172AC746E86DDA355933
:100EC000B5B2E65A46EE9FE90FB8DB6AA466C38066
:100ED00008030603020301011D010101031101F5CD
:100EE00008083280C0602060C0803808112A30189D
:100EF0008C462B1122C40810204183C62C38381789
:100F0000231108840261000A271880C62031080FC7
:100F1000020300132EC0FF8382040A9120D880C6EA
:100F20006031180C0603011D0103070501092E3766
:100F300001DA08092FC0C030103060C080380813B3
:100F40002A4030100C8443251811A2448810A0C0F8
:100F500063361C380011282110088442211088C4EF
:100F60006231180C06030108092EFAEFC182868946
:100F700090A838811D01030104010A2F023901D60E
:100F8000080C2E80C060B01818103060C080380087
:100F9000132430188C4643330C089061428488D067
:100FA00060311B0E2CC0E0B03800112831080484D9
:100FB00043201088C46231180C060301080A2DF082
:100FC000FFE1C0414244487438912C010204010AF7
:100FD00030023A01D4080D2E80C06030580C04183D
:100FE0001060408038001324188C4623110906C471
:100FF000083122C0C47030190F022CE070983816E6
:101000000804C20130000A298CC06330180C0603A2
:1010100001080B2C7CFF70602122202E303138918A
:101020002C010204010923AC01E1080F2A80C0E071
:1010300030186C0686041810604080380016246052
:1010400030188C46231108048342340891E0663836
:10105000180C07012DF0384CC638080D23824120AA
:101060001088C46231180C06033961080A2D7EBF4E
:101070003830101112161D38912C0102040102FFA4
:10108000025108112980C06070980C162243820614
:101090000C183060C03800162430180C864321101C
:1010A00008844221108CC860311A0C0603013FF0FD
:1010B0003C16236190380E2688C4623118387108B6
:1010C0000A2D7C9F1C18180808090E38912C010263
:1010D000040101CD0A36803808102AC0603028CCBF
:1010E0008E13214183060C1830E038001425188C2B
:1010F00046231108844221100881C62438090E02B3
:10110000033FC07C0E133148380F2584C2213008BC
:101110000C3871080B2C708F0F0E0C04040405069C
:1011200038911B01023E03CD0404043580C08008C1
:101130001229C04030101CA44789102041810604A8
:1011400098D060380014260C844321100884422172
:101150001088C463321C0C0603012808FC07091020
:101160002844C2380C286231183861080B2C708F63
:10117000070706060206020338911C01020401015A
:10118000CE0632C04040C08008142580C0603010B8
:101190000C9C634384081020418386CC7820700027
:1011A00017266030180C86432110088442211088CD
:1011B000C462311A0C060301280AE0FF0304081474
:1011C000226190380A28183861080C2B70880703B0
:1011D00003020202030101389106CF010204040454
:1011E0000F3380C02060C0803808102630088C4A39
:1011F0003322448810204183864C3838480C6030B4
:10120000188C422310088442210505270906020193
:10121000380AF0DF83040C122150883D0A27043875
:1012200051380870880603030301010135130102D8
:1012300003CF040408083280C0602060C0803808F2
:10124000112A30180C864B3123408418204083C269
:101250006C3838001227432110088442211088C4BA
:101260006231180D0603013809FCD782040C12A163
:10127000D0380A280C38414F70880402030101015C
:101280003505D10102040408093180C060206040A6
:10129000808038100A30188C066B1123408C123075
:1012A0000D2AC1C664383814630118000E27864021
:1012B000211088C46231180D06030114FCD7832E57
:1012C0000E803190C8380A280C38314808708804DC
:1012D0000201030101013404D30102040808328031
:1012E000C0602060408038100A30180CC60B3123D3
:1012F00044880F2A3001C1C66C3838130331000FFF
:10130000270C8043201088C46231180D0603011495
:10131000FCD7823D0E10A1D0380A280C382148098C
:10132000708804020101030101013304D5010204A4
:101330000731C0402060C08008142580C06030188C
:101340000C8C4B3123448810204183C66C38380004
:1013500017274030100C8443211008844221108844
:10136000C46231180D0603013809FCD782040C123F
:1013700021D0380A280C3811157088060228080177
:1013800003030301030101013103D701020F33807D
:1013900040604080803808102910188C5623410482
:1013A000081020418286C83838001327844621114E
:1013B00008844221100884C221310A0C0203180A51
:1013C000FA8F01040C22219088380B283008381538
:1013D0006088040212011A03011C0202010101309B
:1013E00003D801020E3380C0C08080380811296004
:1013F00030189C5663850810204183068CD87038BD
:101400000014268C462311100C8240211088C463DE
:10141000301E0C0603011809FC0F05081C2240A110
:10142000380C276231183815708806021809010136
:10143000020707070602010A26037081092D2F0102
:10144000AD0C3480808038081129C0203018CC863B
:101450000911204182060818F04038081424088C2D
:10146000422310088442211008C54234180C070397
:10147000013C1808FC0E03102844C2380F24C44253
:1014800031100C0438157088040218090101020299
:101490000F070604010B2506067081092C2E01E7B3
:1014A00008112A80C06030588C16234183060C181E
:1014B0003060C038100A188C46231108840261007D
:1014C0000B241986C468311A0C0603012FF03C1650
:1014D000235188380F241880C66031183815708859
:1014E0000602080F25010102020E1F0E0C08080853
:1014F0000D06047001FF011E08102A80C060B0189C
:101500001C2642820608182060C0380015243018B6
:101510008C06630118048241221488D061321C0CAD
:1015200006032EC0782C06E338180940211088C421
:10153000623118380221011570080602080F2301D4
:101540000102020C3F1D18101018191B0C3801FF66
:101550000121080F2A80C0E030384C84040C183078
:1015600060C0803810086030180CC60331000D25AB
:101570000D82442810A1C26438180C072CF0384C96
:1015800038000F200C8043201088C46231180C06EC
:1015900003011570080402080F23010102020C7FE9
:1015A0003D302020213216193801FF0122080D2D6F
:1015B00080C060709808081820608080380013256B
:1015C00030188C4623110A048850214284C8703098
:1015D000190F1DE070980C3800101F08048241207C
:1015E0001088C46231180C06030115300804020883
:1015F0000F23010102024C7F75604063402C64326E
:101600003801FF0123080A3080C06030103020C04C
:10161000803808122910188C4623150891624488D6
:1016200010A061231A0C3800111F211108844221D7
:10163000100884C22130080C030315100804022886
:101640000F01010202CCFFE1C18285C85864423813
:101650000A1E023801FF012308093180C0602030D2
:1016600060C0803808122930180CC627193122C4EE
:10167000881020C1C3663C083800121E2311100CCC
:101680008241211088C46231180C0703011510082B
:101690000602380E01020202FCFF8182068991B027
:1016A000C8380A1E063801114A010101FFB10808B5
:1016B0003180C04060408080380812296030180CAA
:1016C0008E532340840810204182C66838380013A6
:1016D0001F86432110088442211088C46231190EEC
:1016E0000603011408040217010102C2FF872E0C31
:1016F00004126190380B20180C38F12A03012A01DA
:101700000101FF910E3380C040C0803808112A606B
:1017100030180C9663458810204183068CD87038A9
:1017200000131FC62311100C8241211088C462319E
:101730001A0C060301381008040201010202FE9788
:1017400005081C2241A1380A211838E11E030707A9
:101750000302010B2C03013801DB0D3480C08080B3
:1017600038081029203018946645891020418306D6
:101770008CD87038001421088C4223100884422130
:101780001008C44233140C060301130402580B0161
:1017900001FA2E0708182442A13D0B20040238B993
:1017A0004408092107070606060202027001E70D38
:1017B0003480C080803808102A603018AC46870911
:1017C00010204183060C98703810098C46231108AC
:1017D000840261000B2118844362141C0407010178
:1017E000130202180A01F23E0709182442A1380F19
:1017F00021C26031180C0638B1080C2B040707060B
:10180000060406020203033801DB0D3480C0808029
:101810003808102A603018AC46870910204183062A
:101820000C98703810098C46231108840261000B53
:10183000231880C662301C0C070301280B0202F03B
:101840003F0709182442A1380E236031180C0638CE
:1018500091080B2C04070706060406020203380150
:10186000DB0D3480C080803808102B6010188C6627
:10187000058910204183060C98F038001225462176
:101880001108844221100884C222340C0C0303285E
:101890000A02F23E0709182442A1380E242130081A
:1018A0000C023881080A2504070706060602020210
:1018B0007001E30D3380C0C0803808112A40201029
:1018C000089C63478810204183068CD870384C846C
:1018D000422105000A2688C462311A0C0603013829
:1018E00009F2BF0708182442A1380A2818388108CD
:1018F000092E07070706060202033801D90F3380B5
:10190000C06040C0803808112930188C0E73234401
:10191000881020418386CC78103800132646231186
:1019200008048241201088C46231190E0603012880
:101930000AE0FF83040C12216090380B27180C3842
:1019400081080A2D03070707060703010138015D17
:101950001540202008072F0408082020403580402B
:101960004080120119D02903012C15E0380E0B1309
:1019700008080D310B0E38E0B413FF011009207C6C
:10198000848286847C20043001FF502C81DFE0BA01
:1019900049C6042FE0DF810014351E0F0406030240
:1019A0003AFAE2E3FE3A020306040F1E1003BD03F7
:1019B000032580C0C080000B2C1028440240014148
:1019C00002442816E0380E0B0907320809030E38C6
:1019D000E014A0FF01100920F884840484F8200496
:1019E0003001FF404402FFC03B01018B3ABF0701B9
:1019F0002A001534101E0B0D05070672FAE2C2FA12
:101A00003A0207050D0F1C100C2D010F077A018FEC
:101A10005B80800812405A400B0128100EC0701CD9
:101A20001613111013161C74CA091A0802032A0986
:101A30000A14A0FE03100940F808080C08F8400436
:101A40003003FE402402BFC02E01010301018B03BD
:101A50002EBF02001534203C1E090D0704F4F4C407
:101A600084F4F4040E0B091E3C2005BD073F1F073C
:101A7000033980801011C0701C0613011103161861
:101A800070C0401010080C281040404E1420FE0377
:101A9000100940F018080818F0401503FE42021A19
:101AA0000203012A24057FC01F0103020203018BE8
:101AB0000A297F3A4100153440381E1B0B0E0CE4F6
:101AC000F48484F4EC0C0E0B1B163C2005BD031FA4
:101AD0001F0303398080000D32C0701C16131110D3
:101AE00013161C70C014A0FE03100940F808080C5F
:101AF00008F8401603FEC402820529840850201B02
:101B000002BF752E01010301018B032EBF020814D1
:101B100028203C1E090D070474F4C4C4F474040E98
:101B20000B091E3C7BB12C0107078001B9053880E9
:101B3000C0C08016E0380E0B0907320809030E38C2
:101B4000E014A0FF01100920F884840484F8201513
:101B500001FF9080092C894402FFC03B01018B14D6
:101B6000BF111006271011021408001534101E0BA7
:101B70000D05070672FAE2C2FA3A0207050D0F1CBC
:101B8000103C010F078101B805388040408015E006
:101B9000380E0B12080632080B0E38E01440FF0115
:101BA0001009207C848286847C20043001FF507CD4
:101BB00081DFE0BA1580E0FFA10D2810202080CC45
:101BC00010141E0F040603027AFAE2C3FA7A020323
:101BD00006040F1E14130404022F0105AC031F0F8B
:101BE0000316A010100402200901010102041810BC
:101BF000A0052D80C0C080130101690216E1390ED5
:101C00000B090F3108090B0E38E08A13FF01100988
:101C100020F884840484F820043001FF403B02FF54
:101C2000751990313BE0BF07012A08192E101E0FCD
:101C30000D0507027AFAE2C2FA3A0247A51D0F1C07
:101C400024040810A0874C010F077A3A010201A56D
:101C50001B8040016A800D690901262D28444241FC
:101C60003F00113240404142C4781C16131110133A
:101C7000161C70C014A0FE03100940F808080C08D8
:101C8000F8400B2C03FE87311B05BF75360101039D
:101C90000101042EC0FF02001534203C1F090D0F66
:101CA0000474F4C4C4F474040F0B091E3C202C010A
:101CB000070780000AB12824022121012224280BD1
:101CC0002E8080302420101000112810106080C059
:101CD00070180E13011103161870C01A0F3A49013B
:101CE00014B0FE03100940F018080818F040043042
:101CF00003FE401B05FF7527010302020301042EAA
:101D0000C07F0500153440381E1B0B0E0CECF4840C
:101D1000C4F4EC0C0E0B1B1E38204D071F1F035183
:101D2000134020092FC489CD130908130808047033
:101D300009050203398080000D28C0701C1613119C
:101D40001013161C70C01009402020080402020263
:101D50001504A8FE03100940F808080C08F8400410
:101D60002603FE408303021B06BF752E01010301FB
:101D7000018B7ABF180126001534203C1E090D077F
:101D800004F4F4C484F4F4040E0B091E3C2005BCD6
:101D9000073F1F07053880C0C08016E0380E0B09CA
:101DA0000F2C0809030E38E07519011114A0FF016A
:101DB000100920F884840484F820042601FF402EB2
:101DC00070888482013F3C8183BF753B01018B3A5F
:101DD000BF07012A001534101E0B0D05070672FA05
:101DE000E2C2FA3A0207050D0F1C100C2D010F0775
:101DF0007A018E0D36804040803B15E0380E0B0096
:101E000008320808010B0E38E01450FF01100920B9
:101E10007C848686847C20042901FF5015C0202004
:101E2000107E2020C1DFE0BA052680F0DF813D1A58
:101E3000212120010014353E2F24061F023AFEE224
:101E4000E3FE3A020306040F1E1003BD0303053828
:101E500080C0C08016E0380E0B0907320809030E57
:101E600038E014A0FF01100920F884840484F820CD
:101E7000043001FF404402FFC03B01018B3ABF0721
:101E80000921F015404010080817230404141C1FF2
:101E90006D4587027AFAE2C2FA3A0207050D0F1C75
:101EA00010769304041B04067F0B250F077A019715
:101EB00003398080000D32C0701C161311101316E8
:101EC0001C70C014A0FE03100940F808080C08F8A4
:101ED00040043003FE401B02BF752E0101030101C7
:101EE0008B032EBF02081523203C1E090D0704F4A6
:101EF000F4C484F4F4040E0B091E3C20B61E100832
:101F0000040201012602040810E0052D073F1F0707
:101F100019AF293F4905018303398080000D32C084
:101F2000701C0613011103161870C01420FE031054
:101F30000940F018080818F040043003FE401B0563
:101F40007F751F0103020203018B032E7F0500151D
:101F50003440381E1B0B0E0CE4F4C484F4EC0C0E5D
:101F60000B1B163C2005BD031F1F03033980800097
:101F70000D32C0701C1613111013161C70C014A063
:101F8000FE03100940F808080C08F840043003FE6E
:101F9000401B02BF752E01010301018B032EBF02FE
:101FA000001534203C1E090D070474F4C4C4F474F5
:101FB000040E0B091E3C202C0107078001B90538CF
:101FC00080C0C080000D32E0380E0B010808010B04
:101FD0000E38E014A0FF01100920F884840484F86E
:101FE00020043001FF404402FFC03B01018B3ADF77
:101FF00007012A001534101E0B0C05070672FAE2C1
:10200000C2FA3A0207040D0F1C100C2D010F077ABB
:10201000014D1B80C0010A3180373809E0F0F0F82B
:1020200078787F3F010808247F7878F8F0E0E0496D
:10203000D809C0F8FEFF7F0F0703F708091F010347
:10204000071FFFFFFCF0441AFF0109321C09424040
:102050002DC0C0C0E0241908091301291C1AE0088A
:102060000118BA03011A7F2E1DE7C3C3E707CA3F51
:102070001A01282B01012E033901012A80B60A31E9
:1020800080373809E0F0F0F878787F3F01080824BD
:102090007F7878F8F0E0E049D809C0F8FEFF7F0FBC
:1020A0000703B508091F0103071FFFFFFCF0441ACF
:1020B000FF0109321C0942402DC0C0C0E0241908AC
:1020C000091301291C1AE0080118BA03011A7F2E0E
:1020D0001DE7C3C3E707CA3F1A01282B01012E03DE
:1020E0003901012A80B60A3180373809E0F0F0F86A
:1020F00078787F3F010808247F7878F8F0E0E0499D
:10210000D809C0F8FEFF7F0F0703B508091F0103B8
:10211000071FFFFFFCF0441AFF0109321C0942406F
:102120002DC0C0C0E0241908091301291C1AE008B9
:102130000118BA03011A7F2E1DE7C3C3E707CA3F80
:102140001A01282B01012E033901012A80B60A3118
:1021500080373809E0F0F0F878787F3F01080824EC
:102160007F7878F8F0E0E049D809C0F8FEFF7F0FEB
:102170000703B508091F0103071FFFFFFCF0441AFE
:10218000FF0109321C0942402DC0C0C0E0241908DB
:10219000091301291C1AE0080118BA03011A7F2E3D
:1021A0001DE7C3C3E707CA3F1A01282B01012E030D
:1021B0003901012A80B60A3180363809E0F0F0F89A
:1021C000787C7F3F011E7F78F8F0F0F8092349E81A
:1021D00008E0FCFEFF3F0F03B400092001030F3F9E
:1021E000FFFEFCE00617AAFFFFFF5F1AAB1C021FF1
:1021F0005A19230B31FF051C39BB190129240A1573
:10220000C001491C031880C02B01030279011A3F49
:102210002F1DE7C3C3E7074A7F124A070201294A75
:10222000014E0239012A80B70A3080353809E0F0C2
:10223000F0F8787C3C3F010808247F7FF8F8F0E054
:10224000E048FFE0FCFEFF3F0FB300092001030F51
:102250001FFFFEFCF00617FAFFFFFF0B1AF51C022A
:102260001E161AE82302172F1AD01C021ABF1BA031
:10227000F0F419235BFFE0015CC0E0C0011C80C0EA
:102280008001291C031F808012015A01011C0301D7
:102290003F311DEFC3C3E7073B7F0701062B0F0745
:1022A0000F0F02194629010239013A80BF092E3465
:1022B000380BE0F0F0F878787C3C3C3F010F247F4D
:1022C000FFF8F0E0E047FFF0FCFFFF1F07B2000956
:1022D0001F01030F3FFFFEFCE00E16C0FFFFFF7F54
:1022E000EE191C031DFF041AF8220A320F5B211E8F
:1022F0003C3C7C3C7F013BFBF0012AE0013AC00101
:102300002A8001091B5B011112011A01011B037FC5
:10231000341DE7C7C7E7071B3F0F01052E1F1F1E10
:10232000022B0103010A1801B701203A80C2092DCE
:1023300033280CE0F0F0F8787C3C3C3C3E3F010F49
:10234000247F7FFFF0F0E046E808F0FCFFFF1F0766
:1023500003B108091D0103071FFFFFFCF07A1BF002
:10236000FF3E0915ED1A801C0B1AFF043E1AF821D6
:102370000A320F1D111F080F0F1F1F1FEB18083CFB
:102380003C7C7878F8F0011AE0011AC0011A80014B
:10239000091D3E0114180C0101013B7FFFFFF7C727
:1023A000C7E73B1A7F5E052F1F3E3E0C2C01010341
:1023B00001023B013A80C4092D32081623E0F0F8EF
:1023C000F87C3C3C3C3E1C3F1F3F3F3F7F7FFFF083
:1023D000F0E0460F10C0F8FEFF7F0FB200091E01AB
:1023E000030F7FFFFEF8C00F16E0FEFFFF3F031D47
:1023F0001AFF1D0916B429021AF021FA1F7A711A60
:10240000F05B0A161F5B1F04070F0F0F1F01180A4E
:102410003E3C3C7C787878F8F0F019011DC0C0C0D3
:102420008001111B80F85B0A160F5B01151A7F32C1
:102430003809E3C3E3F7FFFF7F3F5C052D3F3E3CD8
:102440000C0F2B0101030303017501131A80C40B48
:102450002EC08033280BE0F0F8F8787C3C3C3C3F01
:10246000010F247F7FFFF8F0E046E808E0F8FEFF68
:102470003F0F03B708091D0101071FFFFFFEF844C6
:102480000F16C0FCFFFF7F075B0D1BFFFFFF3FB96F
:102490001AF8220A160F5B1AFE5B0218032E181E8A
:1024A0001E3E3EEB2E787878F8F0011AE0012AC043
:1024B000011A8001111A80990A16FF9901101B0850
:1024C0003F2D1CE1E1E3061C7F0F07012A0F0106E7
:1024D000291F1F1E1E1E2A010101433A80C3093015
:1024E000363809E0F0F0F878787C3F010808247F5E
:1024F0007FF8F8F0E0E048E808E0F8FEFF3F0F075B
:10250000BE08091E0103071FFFFFFCF0440617D099
:10251000FFFFFFBF1AA11C021F7F19230A1AFF1C0D
:10252000D997C11AF0011AFD233BE5E0018CC0E008
:10253000C0011E80C08080FA1C0B1AD780C1120116
:102540001A01011B093F292CE3E1E3AE2B0F030124
:102550006C0703070104240F070F29480919AB0171
:10256000293A80BD0932383809E0F0F0F8787F7FE9
:102570003F010808247C7C78F8F0F0E04AD8098014
:10258000F8FCFFFF1F0703C0000A200103070F7FAD
:10259000FFFEF8C006177FFFFFFFA01ABF1C021F37
:1025A000D01A01240218FF091A1C49BE1C8080D7CA
:1025B000241AFA086CC080C0014CE0C0E0011AE5A2
:1025C0001C1BFDF00101181C070F070119EA280C5C
:1025D000FFFFE7C3E7F7FFFF7F1B03017C01030158
:1025E00001110223012B01013609222A091ACE29E1
:1025F000BD02348019F42FF0F8FF7F7F3F01080AF5
:10260000243C3C3C7C78F8F0F0E04CE808C0F8FE54
:10261000FF7F0F07BC000A200101070F7FFFFEF8B4
:10262000E00D163FFFFFFF25071F077FFFFFFCC0E0
:102630001A03250A16FE251A0F5E0A1EF8C81A0785
:102640002513FC801A80011AC0012AE0011AF0014A
:102650001BF87801000A187F3F3F3F3E1E1E1E18E0
:10266000191C1E1F1F1F0F0FEF000D34FFFFE7C7C0
:10267000C3F7FFFF7F3901012B01030109343C211E
:1026800039BD091EEC09153A19F02BFF7FEB080D37
:10269000243F1F3E3C3C3C7C78F8F8F0E04DE808D5
:1026A000E0FCFEFF3F0F03B5000A200101070F7F8A
:1026B000FFFEF8C006173FFFFFFFE01A031D0A16D2
:1026C000FE1D79251A1F250217F01A011D14FFF0AF
:1026D00080290201191B010F251AF82319011DC0B9
:1026E000C0C0E001180DF0F0F0F87878787C3C3C40
:1026F0003E1F0106180F0F0F07048A0C242B070F2B
:10270000CF1CE3E1E10603377F0C2A0101013229E6
:10271000BB0A19C0E6091A392808E0F0F8FF7F7FE4
:102720003F01080A243C3C3C7C78F8F0F0E04CE89F
:1027300008E0F8FEFF3F0F03B0000A200103071F67
:102740007FFFFEF8C00D167FFFFFFF251A0F1C024A
:1027500020F839250915AB1B011F1D0220F0492562
:102760002A80011AC0013AE0011AF001000D19F89F
:1027700078787B7F7F3F3F3E3C1E1E1F1E1E1F1F23
:102780001F0F012A07011B0303F7000A39FFF3F1AA
:10279000E1F3FFFF7F1F043101010139BD023280E7
:1027A00019F229EB29E929010808247C78F8F8F0C6
:1027B000E0E04AE808E0F8FEFF3F0F03AE00092121
:1027C0000103071FFFFFFCF01AFF0101170A19019F
:1027D0001CB9400217401A7F1C021CA01D8080807B
:1027E000EA24BEFD80C080C0012AE0021BE0E51C97
:1027F0000618FEF0E0E0E05A07012A030249012A28
:102800000B751CE3E3E3065C7F0B0101012E09332A
:102810003539CF29BB0A2F8035380AE0E0F0F8F8C7
:10282000787C3C3F011D7F7FF8F8F4092448E808D4
:10283000F0FCFEFF3F0703AC00092001030F3FFF40
:10284000FEFCE00617FDFFFFFF071AFB1C021E152A
:102850001AF8230217171AE81C021A2F2DE0F0F0BD
:10286000F03F5BFFE0015CC0E0C0012F80C08080D2
:1028700080A01C02208012015A01011F03010303E2
:10288000037F341DE7C3C7E70700092F3F07070F82
:10289000070F0F0F19491901033601013A80BF09CB
:1028A0002E34280BE0E0F0F8F8787C3C3C3F01083F
:1028B00008247F7F7FF8F0E0E047E808F0FCFFFFA6
:1028C0001F0703AF00091F0103073FFFFFFCF007CD
:1028D00017C0FEFFFFBF030E1CFDFFFFFF0A7D199F
:1028E000220A161FD6195B0A16FF5B211E3C3C3CD0
:1028F0007C7EEA3BFBF0012AE0014AC0012A80010C
:10290000091A5B01121A010119F01EFFE7C3C3E7A0
:10291000074B7F0F01042C1F1E061C01010301033E
:102920003B01013A80C1092F35380AE0F0F0F87810
:10293000787C3C3F010F247F7FF8F0F0E0471CC01B
:10294000F8FEEFDB0703B5000A1F0103070F7FFF47
:10295000FEF8C00E16E0FFFFFF3F97191C021EFF96
:102960001AF0220A161F9A191C021A7F1E7878780C
:10297000F87C231BF7F0013AE0015AC0012A8001DC
:10298000299A0227DF1D0101157F2F2CE3C3E37471
:102990002B1707013C0F070F01012900083E010119
:1029A00003030301013A80C00930363809E0F0F032
:1029B000F878787C3F010808247F7F78F8F0F0E011
:1029C00048D80980F8FCFFFF1F0703B9000A20015F
:1029D00003070F7FFFFEF8C01AFF0109321C711AAE
:1029E000E82302175F1AD01C021BAF2DE0E0E0F0D5
:1029F000631908CDE0C0E0C0012C80C0801C051820
:102A0000C08080807A01011B137F2B280AE3C3E377
:102A1000F7FFFF7F1703017C0703070101251D0155
:102A20000103034A013F3A80BB0931373809E0E02E
:102A3000F0F8F8787F3F010808247F7C78F8F0F000
:102A4000E049D80980F0FCFF7F1F0703BB000A2084
:102A50000103070F7FFFFEF8E01AFF010916F729AF
:102A60001C0922400217AA0A197F1C49F81CC0C081
:102A7000F5241ADA080912011AEB1C1BFAE0090105
:102A8000173E020303070301296A4809E7C3E3E786
:102A9000FFFF7F3F12A9010916E0C12B0101290A9E
:102AA00022012B091CD10332C080380BC0C0E0F0DA
:102AB000F0F8787F7F3F010808247C78F8F8F0E090
:102AC000E04A1FE0F8FEFF3F0FBBD9D0000821030A
:102AD000071FFFFFFCF01AFF0101170A19011CB9BB
:102AE000400217401A7F1C021CA01D808080EA242F
:102AF000BEFD80C080C0012AE0021BE0E51C061874
:102B0000FEF0E0E0E05A07011D0307033F6D1DF7EB
:102B1000C3C3E3332F7F0B030303010269010125C4
:102B20001B0101371939013A39C50A328037380992
:102B3000E0F0F0F8787F7F3F010F257C78F8F0F027
:102B4000E04AFFE0FCFEFF3F0FB600092001030F43
:102B50001FFFFEFCF01B04FF0101171A051B0220DA
:102B6000FE091940091B1C49FA2B80C024ECD080B7
:102B7000C0012AE0021AEF1C0617F8E0E0E0A04BC3
:102B80000107012A030219011A3F301DE7C3C3E7F9
:102B9000072D7F03030102490101292B0101480987
:102BA0002931C9CF29BA0A3180374809E0E0F0F865
:102BB000F8787F3F010F257C78F8F0F0E049D808DD
:102BC000F0FCFFFF1F0703B2000A200101070F3FBF
:102BD000FFFEF8E00617DFFFFFFFAA1A7F1C021FA7
:102BE000A81A2A240217FE0A19151C59F91BC0E05D
:102BF000240B15FFC001291C0C17E0E0C0C54B07D2
:102C0000030279012A17B33809E3C3E3F7FFFF7F13
:102C100017122A0103012C1A01320435030101198C
:102C2000D00C31C0C080373809E0F0F0F878787FF8
:102C30003F010808247F7878F8F0F0E049D809804F
:102C4000F8FCFFFF0F0703B1000A200103070F7F05
:102C5000FFFEF8C01AFF0109321C0942401AC001E8
:102C600029242908091201291C1AF0080118DA037D
:102C7000011A3F301DE7C3C3E707AA7F18012A2BBB
:102C8000010130033701012A80B60A318037380943
:102C9000E0F0F0F878787F3F010808247F7878F832
:102CA000F0E0E049D809C0F8FEFF7F0F0703B30842
:102CB000091F0103071FFFFFFCF0441AFF0109323F
:102CC0001C0942402DC0C0C0E02419080913012985
:102CD0001C1AE0080118BA03011A7F2E1DE7C3C3AE
:102CE000E707CA3F1A01282B01012E033901012AE7
:102CF00080B60A3180373809E0F0F0F878787F3F05
:102D0000010808247F7878F8F0E0E049D809C0F895
:102D1000FEFF7F0F0703B508091F0103071FFFFF11
:102D2000FCF0441AFF0109321C0942402DC0C0C00A
:102D3000E0241908091301291C1AE0080118BA0334
:102D4000011A7F2E1DE7C3C3E707CA3F1A01282BCC
:102D500001012E033901012A80B60A318037380972
:102D6000E0F0F0F878787F3F010808247F7878F861
:102D7000F0E0E049D809C0F8FEFF7F0F0703B5086F
:102D8000091F0103071FFFFFFCF0441AFF0109326E
:102D90001C0942402DC0C0C0E024190809130129B4
:102DA0001C1AE0080118BA03011A7F2E1DE7C3C3DD
:102DB000E707CA3F1A01282B01012E031D0101005C
:102DC0000F12FC0404FC2050484443444850202087
:102DD000150F04040F2BFE42010A16FE4011080ACB
:102DE00014905234107F1034529040000B118282A4
:102DF0005A562322524E82024A20015AFF080111DC
:102E0000100880804020100C03000811030C1020D3
:102E1000408080180A102C2424A4A465A624010450
:102E200011A4340C080E1140494929241452897FF9
:102E3000040A111060171010F01F10F0080810801D
:102E40008282E2928A86601F40221508166108037A
:102E500016807F15FC0404FC1E404444447F040299
:102E600012400D190F04040F20080E11101010FF4E
:102E70001050445465C64464542000101104448228
:102E80007F0182824A562322524E82023A02012E4A
:102E9000FE0202428209011742FF03140106000EDE
:102EA00012080828C80808FF0808886808080010E1
:102EB0003321211111090503FF03050911112121F6
:102EC000031F58384B7F490102147F280A81412192
:102ED0001D214181FF8901031181810810112024E6
:102EE0002424FE23222020FF20222CA020E0000EFC
:102EF0001248847F02414020130C142241F8180B21
:102F0000F80C0B0808F840308F080709129E1A21A8
:102F100001299B05134380403F1A04813C2424FF70
:102F20000602120400101121211109FD834123051D
:102F3000091129254141151060028C080A110CA4C1
:102F4000A4A5E6A4A4A40C5F14047E01000A1380C7
:102F50004F2A0A0F0A2A4F8014FC04FC000B12109F
:102F600010FF90C8090E08E808140F040F144482DB
:0C2F70007F071F404F605C4340000000E2
:040000050800018965
:00000001FF
